:020000040000FA
:10000000C0FFFF1F750200007D0200007F0200009C
:1000100000000000000000000000000000000000E0
:10002000000000000000000000000000810200004D
:1000300000000000000000008302000085020000B4
:10004000870200008702000087020000870200008C
:10005000870200008702000087020000870200007C
:10006000870200008702000087020000870200006C
:10007000870200008702000087020000870200005C
:10008000870200008702000087020000870200004C
:10009000870200008702000087020000870200003C
:1000A000870200008702000087020000870200002C
:1000B000870200008702000025140000A913000039
:1000C00000F002F800F05CF812A030C808382418DC
:1000D0002D18AC4201D100F053F80FCCA246AB462C
:1000E0000CA730CF2D1B083F3F197C427F1E544484
:1000F0002D090426F441641EAC4201D300F040F8FF
:100100000126334200D0FB1A3343984754465D46DC
:10011000DFE70000802D0000A02D0000103A02D380
:1001200078C878C1FAD8520701D330C830C101D598
:1001300004680C6070470000704700000023002432
:1001400000250026103A01D378C1FBD8520700D30E
:1001500030C100D50B60704710B5662902D102F09E
:1001600047FE10BD002010BD1FB500F035F904009A
:100170000020002102F0FCFDE0601FBD10B510BDA5
:1001800002F0DEFB1146FFF7EFFF01F0C7F900F0C8
:100190002BF903B4FFF7F2FF03BC02F099FC000057
:1001A000012081021F4A13680B43136000020A49B1
:1001B0000A6802430A604A6802434A608A68024346
:1001C0008A600720000205494A6902434A610A68B9
:1001D00002430A607047C04620A0044040F00F4030
:1001E000012041020F4A13680B43136001020E48BD
:1001F00002680A43026042680A43426082680A4316
:100200008260C2680A43C260016803221143016030
:10021000416811434160816811438160C1681143A5
:10022000C160704738800440249004400520400499
:100230000C490A6802430A604A6802434A608A68B5
:1002400002438A60FF20000407490A6882430320B2
:1002500080051018086001208007044908600449DF
:1002600008607047289004401CE400E080E200E051
:1002700000E100E00748804707480047FEE7FEE747
:10028000FEE7FEE7FEE7FEE704480549034A054BA3
:1002900070470000A9020000C1000000C0FCFF1F61
:1002A000C0FFFF1FC0FCFF1F0E480021016001209E
:1002B00000040D4A10600D48C21E06231370821EF2
:1002C000117001781F220A402032027008498022F2
:1002D0000A70C178C906FCD5C1780907890FFBD11E
:1002E0007047C046008104404480044003400640FB
:1002F0000050064080B524490B780120C0030A78DD
:100300003F2B11D8520703D40A789206520FD040DF
:10031000C97849097944097949008F4403231B1E90
:1003200017262A21052116E0C0231A40402A08D1A9
:100330004A78D2071FD0087A0007410F1348C840F7
:1003400019E009781940802915D080BD0521C9011F
:100350005C310FE00F21C9010CE00521490209E0E1
:100360000B4907E00521090204E005210902B83123
:1003700000E00849484308490968090F491C02F090
:10038000ADFB0649086080BD0040064000093D0005
:10039000710B0000950800004480044040FCFF1FE2
:1003A0000FB41CB5074B06AA7B446946009005981C
:1003B00001F0BFFE0020694600F009F81CBC08BC33
:1003C00004B01847230000007047704770470A6860
:1003D0001070521C0A6070470048704768FCFF1F8D
:1003E0000048704748FCFF1F10B50446C046C04691
:1003F0002046FFF7CEFE10BD704700000000000051
:10040000FFFFFFFFFFFFFFFFFFFFFFFFFEFFFFFFFD
:1004100010B50F4A116840200143116001218B0281
:1004200054681C4354604A020A4B1C6814431C6005
:100430005C6814435C60084A53787F241C40547005
:1004400013780343137010780843107010BDC04632
:10045000348004400CA0044001600640B0B51E4941
:1004600000230B701D4A14788025254315701478DD
:10047000102525431570147820252543157040005C
:10048000907017485478A40703D501241457002C02
:1004900004D49CB2844201D25B1CF3E79BB2401EA1
:1004A00080B2834203D90878012303430B7050784C
:1004B000C00703D00878022303430B70507802234F
:1004C000034353701078DF230340137010787F23A9
:1004D000034013700878B0BDBCFCFF1F02600640EB
:1004E000102700000248017880220A4302707047FA
:1004F000026006400248017810220A4302707047E9
:10050000026006400248017820220A4302707047C8
:1005100002600640014908707047C046046006400A
:1005200000221249124803789B0703D50023C356C3
:10053000002B04D493B28B4201D2521CF3E792B247
:10054000491E89B28A4204D90A490A780123134311
:100550000B700178C90704D006490A7802231343B7
:100560000B70017802220A430270704710270000C6
:1005700003600640BCFCFF1F02480178DF220A40EE
:100580000270704702600640024801787F220A40EC
:10059000027070470260064070B52D4A0024147046
:1005A0002C4B1D7880262E431E701D7810262E435E
:1005B0001E701D7820262E431E704000987026481D
:1005C0005D78AD0703D501255D57002D04D4A5B294
:1005D000854201D2641CF3E7A5B2441EA4B2A54231
:1005E00003D9157801262E4316705D78ED0703D0E8
:1005F000157802262E4316705E7802252E435E7013
:10060000997000215E78B60703D501269E57002E0B
:1006100004D48EB2864201D2491CF3E788B2A042CC
:1006200003D910780121014311705878C00702D016
:100630001078284310705878284358701878DF21B4
:100640000140197018787F2101401970107870BD31
:10065000BCFCFF1F0260064010270000F0B5344AC2
:1006600000241470334B1D7880262E431E701D7895
:1006700010262E431E701D7820262E431E7040002B
:10068000401C98702C485D78AD0703D501255D5757
:10069000002D04D4A5B2854201D2641CF3E7A5B2B3
:1006A000441EA4B2A54203D9157801262E43167024
:1006B0005D78ED0703D0157802262E4316705E781C
:1006C00002252E435E701E78EF2737401F701E787C
:1006D000082737431F709E78184F3E7000265F78BA
:1006E000BF0703D50127DF57002F04D4B7B28742D5
:1006F00001D2761CF3E7B0B2A04203D910780124EE
:10070000044314705878C00702D010782843107042
:100710005878284358701878DF2404401C70987863
:10072000087018787F21014019701078F0BDC0461C
:10073000BCFCFF1F0260064010270000B0FCFF1F3A
:1007400002480178EF220A400270704702600640BA
:100750000248017808220A4302707047026006408E
:10076000014800787047C04604600640F0B581B08B
:1007700000923E4A002616703D4D6C1E277880235D
:100780003B432370237810271F43277023782027AB
:100790001F4327704000687036482B789B0703D5AD
:1007A0000023EB56002B04D4B3B2834201D2761C53
:1007B000F3E7B3B2461EB6B2B34203D913780127AA
:1007C0001F4317702B78DB0703D0137802271F43D2
:1007D00017702B7802273B432B70697000212B7810
:1007E0009B0703D50023EB56002B04D48BB2834226
:1007F00001D2491CF3E789B2B14203D91178012330
:100800000B4313702978C90702D01178394311704E
:100810002978394329700099697000212B789B074A
:1008200003D50023EB56002B04D48BB2834201D2B4
:10083000491CF3E788B2B04203D910780121014383
:1008400011702878C00702D01078384310702878CB
:10085000384328702078DF210140217020787F21E3
:1008600001402170107801B0F0BDC046BCFCFF1FF4
:100870000360064010270000F0B584B001925D4E81
:10088000002737705C4D6C1E227880231343237041
:100890002A78022302931A432A70227810231343E2
:1008A0002370227820231343237040000090687047
:1008B00052482A78920703D50022AA56002A04D467
:1008C000BAB2824201D27F1CF3E7BAB2471EBBB272
:1008D00003939A4203D932780127174337702A7855
:1008E000D207029B02D032781A4332702A781A4318
:1008F0002A70697000212A78920703D50022AA562F
:10090000002A04D48AB2824201D2491CF3E789B298
:10091000039A914203D9317801220A43327029782F
:10092000C90702D0317819433170297819432970E9
:10093000A91E0F7800220A702678042333432D4E17
:1009400023700F70029F0121009B0B436B702B786B
:100950009B0703D50023EB56002B04D493B28342AC
:1009600001D2521CF3E792B2039B9A4202D9327829
:100970000A4332702A78D20702D032783A43327072
:100980002A783A432A702278EF2313402370227882
:100990000823134323706A78194B1A7000222B78AE
:1009A0009B0703D50023EB56002B04D493B283425C
:1009B00001D2521CF3E790B2039A904202D93078E8
:1009C000084330702878C00702D030783843307040
:1009D0002878384328702078DF210140217068781A
:1009E0000199087020787F2101402170307804B08F
:1009F000F0BDC046BCFCFF1F03600640102700008E
:100A0000B0FCFF1F0248017802220A4302707047BF
:100A100003600640044801780022027042780423F3
:100A2000134343700170704701600640F0B586B013
:100A3000049302920C46924900220A70914E751E50
:100A4000297880230B432B7031780227394331708A
:100A5000297810230B432B70297820230B432B700C
:100A6000400000907070884833789B0703D50023BE
:100A7000F356002B04D493B2834201D2521CF3E705
:100A800092B2431E99B205918A4204D97C490A78F0
:100A9000012313430B703278D20703D078490A78C8
:100AA0003A430A7032783A433270747000223378D5
:100AB0009B0703D50023F356002B04D493B2834243
:100AC00001D2521CF3E792B205998A4204D96C49CB
:100AD0000A78012313430B703278D20703D0684998
:100AE0000A783A430A7032783A433270B31E1C785F
:100AF00000221A70019501990D7804212943019D66
:100B000029701C7001210391009B0B437370317895
:100B1000890703D500217156002904D491B281427E
:100B200001D2521CF3E791B2059A914204D9544B79
:100B3000197801220A431A703178C90703D0504A44
:100B40001178394311703178394331702978EF22A7
:100B50000A402A702978F7220A402A7071784B4A95
:100B600011700021029A032A0B4633D3D21E03923E
:100B70000023029309E033783B4333707378049C7D
:100B8000A354531C039CA24220D03D461A46029B0C
:100B90003778BF0703D50027F757002F04D49FB23B
:100BA000874201D25B1CF3E79BB2059CA34204D9A8
:100BB000334C237801271F4327703378DB072F46F8
:100BC000D9D02F4C23783B432370D4E7921CD2B268
:100BD0000392019D2A78082414432C7032789207DE
:100BE00003D50022B256002A04D48AB2824201D22E
:100BF000491CF3E789B2059A914204D9204C217827
:100C000001220A4322703178C90703D01C4A1178A7
:100C1000394311703178394331707178049AD15465
:100C200000213278920703D50022B256002A04D45C
:100C30008AB2824201D2491CF3E788B20599884200
:100C400004D90F4A10780121014311703078C00790
:100C500003D00B4908783843087030783843307037
:100C60002878DF210140297070780499039A88540C
:100C700028787F21014029700148007806B0F0BD36
:100C8000BCFCFF1F0360064010270000B0FCFF1FE4
:100C900002480178F7220A4002707047026006405D
:100CA00010B5FFF7B5FB272000242146FFF774FCA1
:100CB000800701D4144804703F200021FFF76CFC2A
:100CC000800702D4104801210170104800BF401E67
:100CD000FCD133200024214600F030F83220214698
:100CE00000F02CF82820214600F028F808202146A2
:100CF00000F024F80120214600F020F80C202146C5
:100D000000F01CF810BDC046BDFCFF1FC032030040
:100D100010B5272000242146FFF73EFC800701D4B0
:100D2000054804703F200021FFF736FC800702D4FD
:100D300001480121017010BDBDFCFF1FF0B583B05B
:100D40000D46064602A800F077F90028FAD1681E81
:100D50008541F0203040471920480078411E8841E5
:100D6000C0003818011D1E4800783F242722019238
:100D70000028204600D10198FFF70EFC17480078A4
:100D8000411E8841C000C119154F387800282046FF
:100D900000D10198FFF700FC300145190F48007899
:100DA000411E8841C0002818001DC1B238780028B3
:100DB000204600D10198FFF7EFFB08480078411E5C
:100DC0008841C0004019C1B23878002800D1019C88
:100DD0002046FFF7E1FB03B0F0BDC04644FCFF1F17
:100DE000BDFCFF1F80B50D200021FFF7A7FF80BDD0
:100DF00080B50C200021FFF7A1FF80BD80B50E203B
:100E00000021FFF79BFF80BD80B54A1E91418901FB
:100E1000272800D3272008438022024300211046C0
:100E2000FFF78CFF80BD80B501200021FFF786FF12
:100E300080BDB0B504460078002809D00025C0B2B6
:100E40000121FFF77BFF6D1CE8B2205C0028F6D182
:100E5000B0BDC046F0B585B00125002805D00446D8
:100E600002AE002805D4002709E002A83021018045
:100E70002DE002A82D210170461C64420127019536
:100E8000012C08DB25460A21284601F027FE761CA6
:100E9000092D0546F7D800203070012C019D16DB86
:100EA0000190761E0A252046294601F017FE45438B
:100EB000611B30220A433270761E7F1C092C0446C7
:100EC000F0D8F8B2052801D3019D00E0012502A861
:100ED000007800280AD00024C0B20121FFF72EFFBD
:100EE000641CE0B202A9085C0028F5D1002D0AD0EC
:100EF0002020012405A5C0B20121FFF71FFF285DB6
:100F0000641C072CF7D105B0F0BDC046202020207E
:100F100020200000F0B581B00D46002806D0044620
:100F2000002809D40027012C0DDA15E00020687094
:100F300030202870012723E02D2028706D1C64428A
:100F40000127012C08DB26460A21304601F0C6FDA8
:100F50006D1C092E0646F7D800202870012C0FDBE7
:100F60006E1E0A252046294601F0B8FD4543611B47
:100F700030220A433270761E7F1C092C0446F0D8BA
:100F8000F8B201B0F0BDC04680B508490870084904
:100F90000978002901D1272200E03F22411E884123
:100FA000C1001046FFF7F8FA80BDC04644FCFF1FA1
:100FB000BDFCFF1F80B508490978002901D127220F
:100FC00000E03F22054909784B1E9941C9000143C1
:100FD0001046FFF7E1FA80BDBDFCFF1F44FCFF1F78
:100FE000F0B581B04A1E91410001451810480078C3
:100FF000411E8841C0002818001DC1B20D4E307836
:101000003F2427270028204600D13846FFF7C4FA9E
:1010100007480078411E8841C0004019C1B23078AD
:10102000002800D13C462046FFF7B6FA01B0F0BDDB
:1010300044FCFF1FBDFCFF1FF0B585B00190304898
:1010400000783F25272102910028284600D10298E8
:101050002C490C78002C01D0FA2100E0F2210091FB
:10106000FFF79AFA264800780028284600D102980F
:10107000002C01D0052100E00D21CE43311DCFB25F
:101080003946FFF789FA1E4800780028284600D123
:10109000029804AC2146FFF7E1FA194800780028CD
:1010A000284600D102980099FFF776FA1448007894
:1010B0000028284600D102983946FFF76DFA1048FB
:1010C00000780028284600D1029803AF3946FFF780
:1010D000C5FA0B480078002800D1029DF820064090
:1010E00028463146FFF758FA2178F02008403A7830
:1010F00012091018019A10708020084005B0F0BD48
:10110000BDFCFF1F44FCFF1FB0B54020002421465A
:10111000FFF714FE254D285D0121FFF70FFE641C2B
:10112000082CF8D10024224D285D0121FFF706FE8E
:10113000641C082CF8D100241E4D285D0121FFF706
:10114000FDFD641C082CF8D100241B4D285D0121F5
:10115000FFF7F4FD641C082CF8D10024174D285D1E
:101160000121FFF7EBFD641C082CF8D10024144D7D
:10117000285D0121FFF7E2FD641C082CF8D1002452
:10118000104D285D0121FFF7D9FD641C082CF8D112
:1011900000240D4D285D0121FFF7D0FD641C082CB3
:1011A000F8D180200021FFF7C9FDB0BD00FCFF1F72
:1011B00008FCFF1F10FCFF1F18FCFF1F20FCFF1F77
:1011C00028FCFF1F30FCFF1F38FCFF1F70B50446D2
:1011D000002104E0002A0D4610463AD023E0C8B2B0
:1011E000225C2F2AF6D123185B782F2B22D1851C65
:1011F000605D00281ED0E8B2235C613B192B19D832
:101200000020C0467B441B795B009F440C131113E4
:101210001C1313131313131E132016131313181375
:1012200013131313131A0121FFF788FD691CD6E766
:101230000120F8E70D461046F5E70520F3E7062004
:10124000F1E70720EFE70220EDE70320EBE70420BA
:10125000E9E770BD0120400605490A6882430A603B
:101260000A6802430A600348002101607047C046D3
:101270003C8004400090034010B50F4801462931DE
:101280000E4A536B0B43536301214B06946B1C4373
:1012900094630B0614681C431460094A002313600E
:1012A000084B93604902084B1960282151619061F5
:1012B0000E20106010BDC046D7030000048004401B
:1012C000009003403333000034A0044010B5C11730
:1012D0008843B421B42800D308467D22D40060435B
:1012E00001F0FCFB0119044C20684843034901F05C
:1012F000F5FB206110BDC04608900340204E000061
:1013000010B5012081020C4A13680B4313600002E0
:101310000A4908600A48026802231A43026002462A
:101320000C3A14681C431460064A0A6101682022C2
:101330009143016010BDC0463880044004A00440C1
:1013400054F00F4000010B000648026802210A43D6
:101350000260054A00BF521EFCD142680A43426047
:101360007047C04644F00F40F028000080B509489F
:10137000006809490968401A00F0C8FC00F070FCD8
:10138000064A074B00F048FB00F008FB05490860DF
:1013900080BDC046B8FCFF1FB4FCFF1F809F71E1F9
:1013A0004048363FACFCFF1F10B5154C2068800646
:1013B00024D5144800688006134812D400681449E4
:1013C0000860124800680968401A00F09FFC00F0AD
:1013D00047FC104A104B00F01FFB00F0DFFA0F49EA
:1013E00003E00021016000680849086020682021AE
:1013F000014321600120C0070949086010BDC046B3
:10140000A0A0044050F00F4018E000E0B8FCFF1F1F
:10141000B4FCFF1F809F71E14048363FACFCFF1FCA
:1014200080E200E010B50E480168890517D501215A
:101430004A020C4B1C6814420BD10B4C00BF641EBB
:10144000FCD11B68134204D1084B1C78002C00D13E
:10145000197003681343036088070549086010BDCD
:10146000A090044010F00F4060990100A8FCFF1FFD
:1014700080E200E0B0B5FEF793FEFFF711FC012417
:101480002046FFF781FDA0021B490A6802430A605B
:1014900020021A4908601A48026802231A430260AF
:1014A00002460C3A15681D431560164A0A61016828
:1014B000202291430160FEF793FEFEF7B7FEA007DE
:1014C00011490860E0070860104800680A2101F02F
:1014D00005FB401E010E0DD10D490E4A50600E480D
:1014E00003680B40032189075918016000209060B0
:1014F00007201060B0BDC0463880044004A00440FE
:1015000054F00F4000010B0000E100E040FCFF1F21
:10151000FFFFFF0010E000E020ED00E088B0FFF7E3
:10152000A9FF01256906434802688A4302600268F0
:101530000A430260404F00243C60404A2932031FA6
:101540001E6816431E6002680A4302602906383886
:1015500002680A4302603C603948B8606902394851
:1015600002910160282078613448B8610E2038600B
:1015700020462146FFF748FC33A0FFF75AFC28021B
:101580000190354F354E31680220014331603449B6
:1015900000BF491EFCD17168014371600794069435
:1015A000059404942F48006800F05AFB02460B464D
:1015B00004AD28462CA1FEF7F3FE01262046314655
:1015C000FFF722FC2CA0FFF734FC20463146FFF742
:1015D0001BFC2846FFF72DFC22480068214601F03D
:1015E000A7FB00280BD11F480068284901F0ADFB7C
:1015F000002804D07D200101019A029803E00F49E0
:101600001131029A0198154E736813437360326862
:1016100002433260084DA86848431D4901F05EFA54
:10162000A86103940398B842ADD200BF0398401C50
:101630000390F7E73C80044000900340D70300008C
:101640003333000034A004404272616D6120676F43
:10165000746F77610000000060EA000044F00F4002
:10166000F0280000ACFCFF1F446973743A20252E5B
:10167000316620636D0000002020202020202020E3
:1016800020202020202020200000000000004040DA
:10169000204E0000F3B50446002081B020622046B1
:1016A000E168884700287AD0252802D06268A168BE
:1016B00071E0E16820460025884706460020E06189
:1016C0000746A0612A2E0AD0304601F049FB0028C7
:1016D00027D0B8000019303E0090866119E00298CA
:1016E000BA00121902C8916102902046E168884749
:1016F000012F064617D1E06900281FDA2020854314
:101700001CE000980A21806948430099801930380C
:1017100088612046E1688847064601F021FB0028E1
:10172000EFD1012F0AD02E2E08D12046E16888473C
:101730000646202005437F1C022FC3DBA06900283A
:1017400003DA4042A06101200543E80701D01020E0
:101750008543002E23D030464138192803D8012074
:10176000C00205432036204625603146029A1546C0
:10177000FEF7F2FC00280BD0012806D0ED1DE8088A
:10178000C000083002908AE709E02D1D029586E727
:1017900062683046A1689047206A401C7EE7206A54
:1017A000FEBD0000002203098B4273D3030A8B4263
:1017B00058D3030B8B423CD3030C8B4221D312E052
:1017C00003460B437FD4002243088B4274D30309A2
:1017D0008B425FD3030A8B4244D3030B8B4228D343
:1017E000030C8B420DD30902FF2212BA030C8B4269
:1017F00002D31212090265D0030B8B4219D300E009
:10180000090AC30B8B4201D3CB03C01A5241830B8D
:101810008B4201D38B03C01A5241430B8B4201D33D
:101820004B03C01A5241030B8B4201D30B03C01A66
:101830005241C30A8B4201D3CB02C01A5241830AE0
:101840008B4201D38B02C01A5241430A8B4201D30F
:101850004B02C01A5241030A8B4201D30B02C01A39
:101860005241CDD2C3098B4201D3CB01C01A5241A0
:1018700083098B4201D38B01C01A524143098B4229
:1018800001D34B01C01A524103098B4201D30B0112
:10189000C01A5241C3088B4201D3CB00C01A524137
:1018A00083088B4201D38B00C01A524143088B42FC
:1018B00001D34B00C01A5241411A00D20146524195
:1018C000104670475DE0CA0F00D04942031000D3B4
:1018D000404253409C46002203098B422DD3030A09
:1018E0008B4212D38901FC2212BA030A8B420CD319
:1018F000890192118B4208D3890192118B4204D342
:1019000089013AD0921100E08909C3098B4201D3C1
:10191000CB01C01A524183098B4201D38B01C01AFB
:10192000524143098B4201D34B01C01A5241030972
:101930008B4201D30B01C01A5241C3088B4201D321
:10194000CB00C01A524183088B4201D38B00C01ACE
:101950005241D9D243088B4201D34B00C01A5241A5
:10196000411A00D201465241104663465B1001D332
:101970004042002B00D54942704763465B1000D3BC
:10198000404201B50449002802DC491C084000E03F
:101990000846C046C04602BDFFFFFF7F0246C80F93
:1019A000C00781434B0030B54B405B009B0D20D0FE
:1019B0001923DB06C91801231B05994220DB0324E8
:1019C000A40704251346AB400BD3002B04D1EB0630
:1019D00013409B00E34204D401246407002312193E
:1019E0005941FF231B0599420BD2C9000143500FF7
:1019F00009E0CB0204D501430803024305D00548A2
:101A000030BDFF21C905084330BD0846072109053F
:101A1000884330BD0000C07FF0B58B4C0F092546D0
:101A200089B0BD437BD01D092646AE43FAD00E4691
:101A30005E402740F60F3E43254071D024012142ED
:101A4000FBD0FF24AD19A4042D1B039501252D0502
:101A5000DB02DB0AC9022B43C90A29431E01090123
:101A6000040F130F050121431701880B82039143D3
:101A70002D098C46A90B1E438A039543B30B9A0389
:101A800096433F09BA0B9403A74302962E467E4322
:101A90000497B6464E19D7190C460196544305973C
:101AA0007E43371B7646BF1B3601B646BE0B361942
:101AB00000967646BC043719009C01D3641C009440
:101AC0006400002F01D001263443029E049F754319
:101AD00066467E430496760034196E0034190094ED
:101AE000029C019E1C196643751BAE460694654612
:101AF0004519059C05956C43594375460891691A2B
:101B00000191049E01465143A41B0491611A009C5B
:101B10000791E10605D061090122114302E072E05C
:101B20006EE06109089D00272C0A2D066918049DA6
:101B30007C412A0A2D066918019D6241AC0DAD0257
:101B40006D185441079A910D920255196141029AFC
:101B5000644658435443069B059A5A43121A131B72
:101B60009A0E9B015B187A41010B0005C318514185
:101B7000220A200644195A419A4200D2491C0120E7
:101B80004002814203D315230226F64302E01423C8
:101B90000326F6432020C51AA9401746AF40DA4075
:101BA0000A4320460399D84009147318190551189F
:101BB000039A3843D2075140AC4009D001229440E7
:101BC00006D30022401C5141002C01D140084000A6
:101BD0001E4A934212D3012203989206904207DBD9
:101BE0000520400709181A480143C012414004E08B
:101BF000032040070818C10FC907002009B0F0BD35
:101C00000020F107FAE705180C464C4111486D42D7
:101C1000A04115D394181A465A410E486442904187
:101C20000ED301204A004005824209D35A00824265
:101C300006D35940C90F084AC90700201143DDE700
:101C400000200649DAE700000000FF07FE07000059
:101C5000FFFFFF7F0000E0FF0000F07F0000F87F43
:101C60000121C9050123411842001B06D3185B0E50
:101C70000AD0C1100722D206891840075242D14229
:101C800001D5520089187047090208D50146002A7B
:101C900003D0C10FC90700207047104670474202A9
:101CA00002D0002002497047072109050143F4E7EB
:101CB0000000F87F1F22030C02D10F2200041CD069
:101CC000030E01D10002083A030F01D10001121FD7
:101CD000830F01D18000921E002801DB4000521EBC
:101CE000D2055118021251181922904004D3491CF0
:101CF000002801D14908490008467047C10FC907AB
:101D000000D04042012292071143D3E70121890705
:101D1000D0E70000FFB50C461E468FB003CA0890FE
:101D200009914F007D0D00D16D1E00210846002055
:101D3000C0460321099A89050840002A03DA820077
:101D4000801840080840800D01280A9002DD00201C
:101D5000C0430A90089807430DD0F048F04928186E
:101D600048430714189800281DD07542291E1DDD10
:101D70000A9842421BE01898012802D00020302126
:101D800004E00020F24305E02154401CB042FBDB9C
:101D900030460022189B002121540F998B600A6065
:101DA000486013B0F0BDBD1B6D1CDFE70A9A002927
:101DB00000DA69420BA800F051FA0BAB07CB03AB7A
:101DC00007C30899099800F0B5FA6B4607C30146A6
:101DD000D4480918002D00910BDDD24903980A9AC6
:101DE00049424018002303A90390684600F012FD01
:101DF00008E003990A9A0023081803A9039068468B
:101E000000F0B2FC6B4607C30004000C03D00020B6
:101E1000C043410800E01046189A002A03D000226F
:101E2000009215461EE0751E05D400F095F930327B
:101E300062556D1EF9D501220843079602D0002293
:101E40007F1C04E02078302801D100227F1E002A68
:101E5000069787D01EE0112D07DA00F07DF93032A9
:101E600062556D1C02460A43F5D1084303D0009821
:101E7000002819D00EE00021681E05E0235C625C9A
:101E800063542254401E491C8142F7DBA81B401EAC
:101E900007950690079A18990020A0540F98079B61
:101EA000069A81600CC07CE711260020189059E743
:101EB000D21DF0B50D460446D10893B0C90003C940
:101EC0000C900D9100F01EFF02460D98C00F01D03E
:101ED0002D2007E02068810701D52B2002E0400774
:101EE000C00F4001032A0F9001D0072A05DB0346EB
:101EF0002946204600F06EF90EE12078800601D5D3
:101F0000E76900E006272846652D04D0662814D02E
:101F1000672D69D12DE00020112F009001DB1123E6
:101F200000E07B1C0CAA03A910A8FFF7F3FE11998F
:101F3000002610987D1C0E9142E001203B460CAA21
:101F4000C0070B900120009003A910A8FFF7E2FE44
:101F5000119D12981099002600280E9501D1781C29
:101F60000D18781B02D446427D1C761EE81B00909B
:101F70003AE0012F00DA01270020112F009001DD47
:101F8000112300E03B460CAA03A910A8FFF7C2FEEC
:101F900011993D46109800260E91217809070BD41F
:101FA0000E99A94200DA0D4603A9012D04DD4A1954
:101FB000203AD27F302A06D0B84201DA011D04DA75
:101FC000012100910FE06D1EEFE7002802DC861969
:101FD0002D1A03E0411CA94200DD0D46801B401C68
:101FE00000900120C0070B902078000705D40098CE
:101FF000A84202DB0020C043009069460020C8725E
:102000000B98012102AF0337C907884225D002206F
:1020100010902B2011900B9800280BDA40420B9067
:102020002D20119006E00B9800F044FC30317F1E0B
:102030000B9039701099481E00291090F3DC0B9812
:102040000028F0D111987F1E38702088000501D536
:10205000452000E065207F1E387001A8C01BC01D10
:102060000B900F98002800D0012041190098C0174C
:1020700009180B980818A169081A401EA061207859
:10208000C00602D42046C046C0460F98002805D09E
:102090006268A1689047206A401C20622078C006D0
:1020A00025D52046C046C04621E0002E07DB0E980D
:1020B000B04204DD03A86268805DA16802E0626846
:1020C000A16830209047206A761C401C206200984E
:1020D000401E002800900AD1FEF77EF9C0686268B1
:1020E0000168405CA1689047206A401C2062284635
:1020F0006D1E0028D9DC07E062683878A1687F1C73
:102100009047206A401C20620B99481E00290B90C2
:10211000F2DC2046C046C046032042E601FCFFFF39
:10212000104D0000E1DFFFFF01694A1C02610878E1
:10213000704700B58FB002910021059105490193C8
:1021400079440391114604906846FFF7A3FA0FB053
:1021500000BD0000E5FFFFFF0B4670B50246890792
:102160008008084319469D08141AA9412509080743
:10217000054308092C194841250A01060D43010AA7
:102180002C194141200C0D0428430D0C00194D4120
:10219000002140194D41C00869070843E908840F30
:1021A0008D002543840024184D4124196D41121BD4
:1021B000AB4107E00925ED432C115219634100247E
:1021C000401C61411C460A250026551BB441F1D232
:1021D00070BD0000F8B51F46044601230068DB020D
:1021E000032601461840072A05DB002801D017A561
:1021F00006E017A504E0002801D016A500E016A50A
:10220000102081432160A069C01E002FA06101D071
:10221000401EA0612046C046C046002F09D0384667
:102220006268A1689047206A401C2062C01C20623E
:1022300006E0206AFAE762682878A1686D1C90477A
:10224000761EF8D22046C046C046F8BD4E414E002C
:102250006E616E00494E4600696E6600F7B516461F
:102260008AB0334878446C4603467C33C06F5A6862
:102270009B680DC42E487844763003AC0DC80DC45D
:102280003720C001081837211B30FFF799FA05469F
:102290000C46803D1B3C02D56442012000E000203A
:1022A0000027099010E0E0070CD00C20204978436B
:1022B000794432464C3941186846012300F054FAFB
:1022C0006B4607C364107F1C002CECD1184F7F4471
:1022D0002E3F16E0E80712D02001C0190EC8069163
:1022E000089307920068F04201D19819089032468D
:1022F000012306A903A800F037FA03AB07C36D104A
:10230000641C002DE6D10998002806D032466946A3
:10231000012303A800F07EFA05E001233246694656
:1023200003A800F021FA0A9B07C30DB0F0BD00001E
:10233000980B0000034640000A4610B5400D0BD034
:102340000121C9070F24A40200191C0364082143BA
:10235000540D2143D20207E000210120F2E7D40FFF
:10236000490021435200401E0029F8DADB0FDB0749
:10237000184310BDFFB50D46144685B04868516836
:1023800000F0A7FC00910190A868A16800F0A1FCF2
:1023900002910390A868616800F09BFC029A1218F1
:1023A0008242029201D2012000E00020019A0B1823
:1023B000D2180028019202D08A4202D903E08A4250
:1023C00001D2012000E00020009908180090686800
:1023D000A16800F07EFC029A12188242029201D299
:1023E000012000E00020019A0B18D2180028019269
:1023F00002D08A4202D903E08A4201D2012000E0E1
:1024000000200099081800902868216840004900C1
:10241000400849084018FA49471814E0019940005B
:10242000C90F08430090019802994000C90F084362
:102430000190029803994000C90F08430290039845
:1024400040007F1E039000980028E7DA08980028D3
:1024500001D0EC4E00E00026B74201DA012000E096
:102460000020002804902AD0F71BF806C00E15D0D3
:10247000029B2021091A039A8B401A430392029A65
:10248000019BC2408B401A430292019A009BC240BA
:102490008B4000991A430192C14000917B110DD0ED
:1024A0006F460320C11A03D500218200B95003E012
:1024B0008A008100BA587A50401EF3D537460398F7
:1024C0000299002800D001200143089802910028B9
:1024D00008460CD0002800D001200199019A490536
:1024E00008430121D20AC902D202019200E001216F
:1024F0000E9B0122D207012B02D0002B03D013E048
:10250000002807D120E0904204D890420CD1019BD2
:102510000B4209D0019B5918019105D10099491C22
:10252000009101D17F1C009200280DD01021084697
:102530000020C0460498002806D00F98002803D039
:10254000082108460020C04628682168019B009A9F
:102550004840C10F0598C90739430EC009B0F0BD06
:10256000FFB587B0099A089808995368926840683F
:10257000896896460022039317469446089A126883
:102580005300099A5B081268520052089A1A9E4B2F
:10259000D4180A9A002A01D0352200E0402206927F
:1025A0000022012315460492DB07059324E0002D49
:1025B00005D175460346039E4D1BB34109D37546AD
:1025C0006646039B491B049D9841059B7519AC46C3
:1025D0005F4163463B4308D0059B049EDD077608B8
:1025E0002E435B080496059301E0521E641EC50F3E
:1025F000ED0749184041521C069B9A42D7DB002D3B
:1026000004D17546039A6B1A824101D203200CE073
:10261000039A0B466B404240134303D0014303D05F
:10262000012002E0022000E000206146019100212B
:10263000009702910A99002905D0614640020143A2
:10264000704B019102E08007002302909C4201DA66
:10265000012000E0002007003AD01A1BD006C00E6F
:1026600015D0029D2021019C091AC5408C402543AC
:10267000029C8C4000D001242543019C0295009DC2
:10268000C4408D4000992C430194C14000915411E5
:102690001DD06D460221002202290CD10320001B0F
:1026A00007E0002804DB8600AE59002E00D001228E
:1026B000401C0328F5DB081B02D588002A5004E0E3
:1026C0008000285810438A00A850491EE3D51C46B4
:1026D0000A98002802980CD0002800D00120019907
:1026E000019A490508430121D20AC902D202019286
:1026F00000E00121109B0122D207012B02D0002B08
:1027000003D013E0002807D11FE0904204D8904284
:102710000CD1019B0B4209D0019B5918019105D1A5
:102720000099491C009101D1641C009200280CD032
:10273000102108460020C046002F06D0119800281E
:1027400003D0082108460020C04608980999019A3C
:10275000009B006809684840C10F0798C9072143DA
:1027600082600AC00BB0F0BD00B585B00193009245
:102770000A460146002302A8FFF7FCFD02A807C88D
:1027800005B000BDFFB50A461F4685B00799019305
:1027900001230091014602A8FFF7ECFD029903987E
:1027A000049ECA0F4900D20700920F2249089202E4
:1027B0008C1A0021002800DB0C46450013486D08E8
:1027C000844214D3079A002A04DA441E0026104DCE
:1027D000F64302E004460D460E461021084600204E
:1027E000C046002F03D0042108460020C046200523
:1027F000E90A0843009908436905F20A1143ADE666
:1028000002C0FFFF013C0000FF3F0000FF07000087
:10281000FFFFFF7F00B585B0019300920A46014695
:10282000002302A8FFF79CFE02A807C8A8E7FFB58F
:102830000A461F4685B0079901930123009101467E
:1028400002A8FFF78DFE02990398049ECA0F490063
:10285000D20700920F22490892028C1A0021002808
:1028600000DB0C46450011486D08844214D3079ADA
:10287000002A04DA441E00260D4DF64302E0044609
:102880000D460E46102108460020C046002F03D0FA
:10289000042108460020C0462005E90A08430099A3
:1028A00008436905F20A114358E60000FF070000DB
:1028B000FFFFFF7F01468008081A02091018020A6C
:1028C0001018020C1018C008820012185200891A41
:1028D00001E0401C0A390A29FBD2704710B5FF23DA
:1028E0001B0644009C421DD84C009C421AD803464B
:1028F000124A0B4307D4401A02D3EFF3008010BDF5
:10290000EFF3008010BD081A03D3EFF3008090436B
:1029100005E0EFF3008001219043C907084380F3ED
:10292000008810BD0D231B041A4204D0114600205C
:1029300000F07EF810BD00F093F810BD000000908C
:102940007546FDF74DFDAE46050069465346C00885
:10295000C000854618B020B5FDF796FC60BCB646B1
:1029600000260027C0C5C0C5C0C5C0C5C0C5C0C5FC
:10297000C0C5C0C5403D490849008D4670470000AC
:1029800082078B079A423FD170B5920F0AD0032479
:1029900002780B78401C491C002A33D09A4231D16E
:1029A0002042F5D1214EF40104C808C9951B954376
:1029B000254018D19A420FD104C808C9951B9543E8
:1029C000254010D19A4207D104C808C9951B9543E8
:1029D000254008D19A42E7D012BA1BBA01209A4288
:1029E00000D2404270BD12BA1BBA2DBA1824100092
:1029F000E0401900E140401A05D12E00E64002D126
:102A0000083CF4D1D01A70BD02780B78401C491CE8
:102A1000002A09D09A4207D102780B78401C491C41
:102A2000002A01D09A42EFD0D01A7047010101016B
:102A3000C80212D54803400F002804D0C803C04381
:102A4000012188407047EFF3008000010009032155
:102A50000907084380F30088704700207047000092
:102A600010B5024800F004F810BD00000000C07F5F
:102A700010B50C461107090F092904D00A290AD0FC
:102A800008290CD104E011460820FFF7D1FF06E029
:102A9000510606D501E0510601D50120C0072146A7
:102AA00010BDD10607D501010909CC084907000E60
:102AB0000006044309E0410F20024907000A0143D0
:102AC000200E00061D22D14101430846E7E7000021
:102AD00001491820ABBEFEE72600020043088B42E6
:102AE0001AD3002203098B4279D3030A8B425ED3A7
:102AF000030B8B4242D3030C8B4227D30902FF22E4
:102B000012BA030C8B4202D31212090203D0030B38
:102B10008B4233D31AE0D3E0411A8041401C704706
:102B200003460B4371D443088B42F5D300220309BB
:102B30008B4254D3030A8B4239D3030B8B421DD3F0
:102B4000030C8B4202D394466EE0090AC30B8B42FE
:102B500001D3CB03C01A5241830B8B4201D38B03A9
:102B6000C01A5241430B8B4201D34B03C01A52414E
:102B7000030B8B4201D30B03C01A5241C30A8B4291
:102B800001D3CB02C01A5241830A8B4201D38B027C
:102B9000C01A5241430A8B4201D34B02C01A524120
:102BA000030A8B4201D30B02C01A5241CDD2C30992
:102BB0008B4201D3CB01C01A524183098B4201D30E
:102BC0008B01C01A524143098B4201D34B01C01AF9
:102BD000524103098B4201D30B01C01A5241C30871
:102BE0008B4201D3CB00C01A524183088B4201D3E0
:102BF0008B00C01A524143088B4201D34B00C01ACC
:102C00005241411A524110007047CA0F00D0494248
:102C1000031000D34042534000229C4603098B42DC
:102C20002DD3030A8B4212D38901FC2212BA030A64
:102C30008B420CD3890192118B4208D389019211E6
:102C40008B4204D3890137D0921100E08909C3096E
:102C50008B4201D3CB01C01A524183098B4201D36D
:102C60008B01C01A524143098B4201D34B01C01A58
:102C7000524103098B4201D30B01C01A5241C308D0
:102C80008B4201D3CB00C01A524183088B4201D33F
:102C90008B00C01A5241D9D243088B4201D34B005A
:102CA000C01A5241411A00D20146524110466346B1
:102CB0005B1000D34042704763465B1000D3404234
:102CC00001B50021004201D0C9430846C046C046B4
:102CD00002BDF8B5040C8BB2264682B25E431046A4
:102CE00058430D0C370C36040021801916467941E3
:102CF0006E43370C36048019264679416E43891994
:102D0000F8BD00004900CA020243100000D00420B0
:102D10004A0D01D001221043044A490D914201D1CC
:102D200002210843012800D105207047FF07000059
:102D300010B500F033F8EFF300804000800F012859
:102D400001D0012010BD002010BD10B500F026F804
:102D5000EFF30080800001D4012010BD002010BDE1
:102D600030380A2801D20120704700207047000047
:102D700010B500290AD00878002807D00548784403
:102D8000FFF7FEFD002801D0002010BD0248784466
:102D900010BD0000360100002E0100000123DB05FC
:102DA00002000A430DD4DA4203D49A4207D488427F
:102DB0007047D84214D4D94212D488427047804216
:102DC0007047DA4203D59A42F9D5814270475B00D9
:102DD0004200DA4204D24A00DA4201D2814270470C
:102DE00010B5024AFFF77AFD10BD00BF09001604B6
:102DF00003B402487844844603BC6047B9F0FFFF3F
:102E000002400000000000A000000000054000009B
:102E1000000000C8000000000C4000000000409CC2
:102E200000000000194000000020BCBE00000000AF
:102E300034400000BFC91B8E00000004B5400000F4
:102E4000504BCFD06607E2CF010000006C4100007C
:102E50003E8251AADFEEA73401000000D9420000F3
:102E6000DCB5A0E23A301F97FFFFFFFFB44500003A
:102E7000FD25A0C8E9A3C14FFFFFFFFFFF3F0000F2
:102E80000000008000000000FF3F00000000008004
:102E900000000000D02E000000FCFF1F48000000D2
:102EA0001C010000182F000048FCFF1F78030000E1
:102EB0003C0100001C00000043000000F8FFFFFF81
:102EC0000C0000000E0000000F0000002E000000AB
:102ED00000000E010F110F0102040E1010110E0060
:102EE00000000E111F100E020C0406040C040E004C
:102EF000020416191111110002040E1111110E0015
:102F000002040E100E011E0004001F0204081F0020
:082F1000000080020100000036
:04000005000000C136
:00000001FF
